{
  "contractName": "Elections",
  "abi": [
    {
      "inputs": [],
      "payable": false,
      "stateMutability": "nonpayable",
      "type": "constructor"
    },
    {
      "constant": true,
      "inputs": [],
      "name": "electionsCount",
      "outputs": [
        {
          "internalType": "uint256",
          "name": "",
          "type": "uint256"
        }
      ],
      "payable": false,
      "stateMutability": "view",
      "type": "function"
    },
    {
      "constant": true,
      "inputs": [
        {
          "internalType": "uint256",
          "name": "",
          "type": "uint256"
        }
      ],
      "name": "num_elections",
      "outputs": [
        {
          "internalType": "uint256",
          "name": "id",
          "type": "uint256"
        },
        {
          "internalType": "string",
          "name": "name",
          "type": "string"
        },
        {
          "internalType": "address",
          "name": "orgad",
          "type": "address"
        },
        {
          "internalType": "uint256",
          "name": "no_voters",
          "type": "uint256"
        },
        {
          "internalType": "uint256",
          "name": "no_cands",
          "type": "uint256"
        },
        {
          "internalType": "string",
          "name": "status",
          "type": "string"
        }
      ],
      "payable": false,
      "stateMutability": "view",
      "type": "function"
    },
    {
      "constant": true,
      "inputs": [
        {
          "internalType": "uint256",
          "name": "",
          "type": "uint256"
        },
        {
          "internalType": "uint256",
          "name": "",
          "type": "uint256"
        }
      ],
      "name": "resp_cands",
      "outputs": [
        {
          "internalType": "address",
          "name": "ad",
          "type": "address"
        },
        {
          "internalType": "string",
          "name": "cid",
          "type": "string"
        },
        {
          "internalType": "string",
          "name": "cname",
          "type": "string"
        },
        {
          "internalType": "string",
          "name": "app_status",
          "type": "string"
        }
      ],
      "payable": false,
      "stateMutability": "view",
      "type": "function"
    },
    {
      "constant": true,
      "inputs": [
        {
          "internalType": "uint256",
          "name": "",
          "type": "uint256"
        },
        {
          "internalType": "uint256",
          "name": "",
          "type": "uint256"
        }
      ],
      "name": "resp_voters",
      "outputs": [
        {
          "internalType": "address",
          "name": "ad",
          "type": "address"
        },
        {
          "internalType": "string",
          "name": "vid",
          "type": "string"
        },
        {
          "internalType": "string",
          "name": "app_status",
          "type": "string"
        }
      ],
      "payable": false,
      "stateMutability": "view",
      "type": "function"
    },
    {
      "constant": false,
      "inputs": [
        {
          "internalType": "string",
          "name": "_name",
          "type": "string"
        }
      ],
      "name": "addElection",
      "outputs": [],
      "payable": false,
      "stateMutability": "nonpayable",
      "type": "function"
    },
    {
      "constant": true,
      "inputs": [
        {
          "internalType": "uint256",
          "name": "enid",
          "type": "uint256"
        },
        {
          "internalType": "string",
          "name": "vid",
          "type": "string"
        }
      ],
      "name": "checkVoter",
      "outputs": [
        {
          "internalType": "uint256",
          "name": "",
          "type": "uint256"
        }
      ],
      "payable": false,
      "stateMutability": "view",
      "type": "function"
    },
    {
      "constant": true,
      "inputs": [
        {
          "internalType": "uint256",
          "name": "enid",
          "type": "uint256"
        },
        {
          "internalType": "string",
          "name": "cid",
          "type": "string"
        }
      ],
      "name": "checkCandidate",
      "outputs": [
        {
          "internalType": "uint256",
          "name": "",
          "type": "uint256"
        }
      ],
      "payable": false,
      "stateMutability": "view",
      "type": "function"
    },
    {
      "constant": false,
      "inputs": [
        {
          "internalType": "uint256",
          "name": "enid",
          "type": "uint256"
        },
        {
          "internalType": "string",
          "name": "vid",
          "type": "string"
        }
      ],
      "name": "addVoter",
      "outputs": [],
      "payable": false,
      "stateMutability": "nonpayable",
      "type": "function"
    },
    {
      "constant": false,
      "inputs": [
        {
          "internalType": "uint256",
          "name": "enid",
          "type": "uint256"
        },
        {
          "internalType": "string",
          "name": "cid",
          "type": "string"
        },
        {
          "internalType": "string",
          "name": "cname",
          "type": "string"
        }
      ],
      "name": "addCandidate",
      "outputs": [],
      "payable": false,
      "stateMutability": "nonpayable",
      "type": "function"
    },
    {
      "constant": true,
      "inputs": [
        {
          "internalType": "uint256",
          "name": "enid",
          "type": "uint256"
        },
        {
          "internalType": "uint256",
          "name": "vind",
          "type": "uint256"
        }
      ],
      "name": "checkApprovedVoter",
      "outputs": [
        {
          "internalType": "uint256",
          "name": "",
          "type": "uint256"
        }
      ],
      "payable": false,
      "stateMutability": "view",
      "type": "function"
    },
    {
      "constant": true,
      "inputs": [
        {
          "internalType": "uint256",
          "name": "enid",
          "type": "uint256"
        },
        {
          "internalType": "uint256",
          "name": "vind",
          "type": "uint256"
        }
      ],
      "name": "getVotersAddress",
      "outputs": [
        {
          "internalType": "address",
          "name": "",
          "type": "address"
        }
      ],
      "payable": false,
      "stateMutability": "view",
      "type": "function"
    },
    {
      "constant": true,
      "inputs": [
        {
          "internalType": "uint256",
          "name": "enid",
          "type": "uint256"
        },
        {
          "internalType": "uint256",
          "name": "vind",
          "type": "uint256"
        }
      ],
      "name": "getVotersId",
      "outputs": [
        {
          "internalType": "string",
          "name": "",
          "type": "string"
        }
      ],
      "payable": false,
      "stateMutability": "view",
      "type": "function"
    }
  ],
  "bytecode": "0x60806040523480156200001157600080fd5b50620000586040518060400160405280600b81526020017f43616e64696461746520310000000000000000000000000000000000000000008152506200005e60201b60201c565b62000258565b6003600081548092919060010191905055506040518060c0016040528060035481526020018281526020013373ffffffffffffffffffffffffffffffffffffffff16815260200160008152602001600081526020016040518060400160405280600381526020017f564e530000000000000000000000000000000000000000000000000000000000815250815250600080600354815260200190815260200160002060008201518160000155602082015181600101908051906020019062000128929190620001a9565b5060408201518160020160006101000a81548173ffffffffffffffffffffffffffffffffffffffff021916908373ffffffffffffffffffffffffffffffffffffffff160217905550606082015181600301556080820151816004015560a0820151816005019080519060200190620001a2929190620001a9565b5090505050565b828054600181600116156101000203166002900490600052602060002090601f016020900481019282601f10620001ec57805160ff19168380011785556200021d565b828001600101855582156200021d579182015b828111156200021c578251825591602001919060010190620001ff565b5b5090506200022c919062000230565b5090565b6200025591905b808211156200025157600081600090555060010162000237565b5090565b90565b611c0980620002686000396000f3fe608060405234801561001057600080fd5b50600436106100b45760003560e01c80639d7c257c116100715780639d7c257c1461057a578063bf699d6b14610653578063c23a607a1461069f578063cc525ea81461085b578063e6c62efc1461090c578063f310636514610a68576100b4565b806335414708146100b9578063358b9d97146102145780635129ff1a146102cf57806386194e6e1461039457806387dfbbd2146104e45780639a74c6951461055c575b600080fd5b6100e5600480360360208110156100cf57600080fd5b8101908080359060200190929190505050610b41565b60405180878152602001806020018673ffffffffffffffffffffffffffffffffffffffff1673ffffffffffffffffffffffffffffffffffffffff16815260200185815260200184815260200180602001838103835288818151815260200191508051906020019080838360005b8381101561016d578082015181840152602081019050610152565b50505050905090810190601f16801561019a5780820380516001836020036101000a031916815260200191505b50838103825284818151815260200191508051906020019080838360005b838110156101d35780820151818401526020810190506101b8565b50505050905090810190601f1680156102005780820380516001836020036101000a031916815260200191505b509850505050505050505060405180910390f35b6102cd6004803603602081101561022a57600080fd5b810190808035906020019064010000000081111561024757600080fd5b82018360208201111561025957600080fd5b8035906020019184600183028401116401000000008311171561027b57600080fd5b91908080601f016020809104026020016040519081016040528093929190818152602001838380828437600081840152601f19601f820116905080830192505050505050509192919290505050610ccd565b005b610392600480360360408110156102e557600080fd5b81019080803590602001909291908035906020019064010000000081111561030c57600080fd5b82018360208201111561031e57600080fd5b8035906020019184600183028401116401000000008311171561034057600080fd5b91908080601f016020809104026020016040519081016040528093929190818152602001838380828437600081840152601f19601f820116905080830192505050505050509192919290505050610e14565b005b6103ca600480360360408110156103aa57600080fd5b810190808035906020019092919080359060200190929190505050610f60565b604051808473ffffffffffffffffffffffffffffffffffffffff1673ffffffffffffffffffffffffffffffffffffffff1681526020018060200180602001838103835285818151815260200191508051906020019080838360005b83811015610440578082015181840152602081019050610425565b50505050905090810190601f16801561046d5780820380516001836020036101000a031916815260200191505b50838103825284818151815260200191508051906020019080838360005b838110156104a657808201518184015260208101905061048b565b50505050905090810190601f1680156104d35780820380516001836020036101000a031916815260200191505b509550505050505060405180910390f35b61051a600480360360408110156104fa57600080fd5b8101908080359060200190929190803590602001909291905050506110e7565b604051808273ffffffffffffffffffffffffffffffffffffffff1673ffffffffffffffffffffffffffffffffffffffff16815260200191505060405180910390f35b610564611139565b6040518082815260200191505060405180910390f35b61063d6004803603604081101561059057600080fd5b8101908080359060200190929190803590602001906401000000008111156105b757600080fd5b8201836020820111156105c957600080fd5b803590602001918460018302840111640100000000831117156105eb57600080fd5b91908080601f016020809104026020016040519081016040528093929190818152602001838380828437600081840152601f19601f82011690508083019250505050505050919291929050505061113f565b6040518082815260200191505060405180910390f35b6106896004803603604081101561066957600080fd5b81019080803590602001909291908035906020019092919050505061133a565b6040518082815260200191505060405180910390f35b6106d5600480360360408110156106b557600080fd5b8101908080359060200190929190803590602001909291905050506114d5565b604051808573ffffffffffffffffffffffffffffffffffffffff1673ffffffffffffffffffffffffffffffffffffffff168152602001806020018060200180602001848103845287818151815260200191508051906020019080838360005b8381101561074f578082015181840152602081019050610734565b50505050905090810190601f16801561077c5780820380516001836020036101000a031916815260200191505b50848103835286818151815260200191508051906020019080838360005b838110156107b557808201518184015260208101905061079a565b50505050905090810190601f1680156107e25780820380516001836020036101000a031916815260200191505b50848103825285818151815260200191508051906020019080838360005b8381101561081b578082015181840152602081019050610800565b50505050905090810190601f1680156108485780820380516001836020036101000a031916815260200191505b5097505050505050505060405180910390f35b6108916004803603604081101561087157600080fd5b8101908080359060200190929190803590602001909291905050506116fa565b6040518080602001828103825283818151815260200191508051906020019080838360005b838110156108d15780820151818401526020810190506108b6565b50505050905090810190601f1680156108fe5780820380516001836020036101000a031916815260200191505b509250505060405180910390f35b610a666004803603606081101561092257600080fd5b81019080803590602001909291908035906020019064010000000081111561094957600080fd5b82018360208201111561095b57600080fd5b8035906020019184600183028401116401000000008311171561097d57600080fd5b91908080601f016020809104026020016040519081016040528093929190818152602001838380828437600081840152601f19601f820116905080830192505050505050509192919290803590602001906401000000008111156109e057600080fd5b8201836020820111156109f257600080fd5b80359060200191846001830284011164010000000083111715610a1457600080fd5b91908080601f016020809104026020016040519081016040528093929190818152602001838380828437600081840152601f19601f8201169050808301925050505050505091929192905050506117c4565b005b610b2b60048036036040811015610a7e57600080fd5b810190808035906020019092919080359060200190640100000000811115610aa557600080fd5b820183602082011115610ab757600080fd5b80359060200191846001830284011164010000000083111715610ad957600080fd5b91908080601f016020809104026020016040519081016040528093929190818152602001838380828437600081840152601f19601f820116905080830192505050505050509192919290505050611934565b6040518082815260200191505060405180910390f35b6000602052806000526040600020600091509050806000015490806001018054600181600116156101000203166002900480601f016020809104026020016040519081016040528092919081815260200182805460018160011615610100020316600290048015610bf35780601f10610bc857610100808354040283529160200191610bf3565b820191906000526020600020905b815481529060010190602001808311610bd657829003601f168201915b5050505050908060020160009054906101000a900473ffffffffffffffffffffffffffffffffffffffff1690806003015490806004015490806005018054600181600116156101000203166002900480601f016020809104026020016040519081016040528092919081815260200182805460018160011615610100020316600290048015610cc35780601f10610c9857610100808354040283529160200191610cc3565b820191906000526020600020905b815481529060010190602001808311610ca657829003601f168201915b5050505050905086565b6003600081548092919060010191905055506040518060c0016040528060035481526020018281526020013373ffffffffffffffffffffffffffffffffffffffff16815260200160008152602001600081526020016040518060400160405280600381526020017f564e5300000000000000000000000000000000000000000000000000000000008152508152506000806003548152602001908152602001600020600082015181600001556020820151816001019080519060200190610d95929190611b2f565b5060408201518160020160006101000a81548173ffffffffffffffffffffffffffffffffffffffff021916908373ffffffffffffffffffffffffffffffffffffffff160217905550606082015181600301556080820151816004015560a0820151816005019080519060200190610e0d929190611b2f565b5090505050565b6000808381526020019081526020016000206003016000815480929190600101919050555060405180606001604052803373ffffffffffffffffffffffffffffffffffffffff1681526020018281526020016040518060400160405280600181526020017f510000000000000000000000000000000000000000000000000000000000000081525081525060016000848152602001908152602001600020600080600086815260200190815260200160002060030154815260200190815260200160002060008201518160000160006101000a81548173ffffffffffffffffffffffffffffffffffffffff021916908373ffffffffffffffffffffffffffffffffffffffff1602179055506020820151816001019080519060200190610f3b929190611b2f565b506040820151816002019080519060200190610f58929190611b2f565b509050505050565b6001602052816000526040600020602052806000526040600020600091509150508060000160009054906101000a900473ffffffffffffffffffffffffffffffffffffffff1690806001018054600181600116156101000203166002900480601f01602080910402602001604051908101604052809291908181526020018280546001816001161561010002031660029004801561103f5780601f106110145761010080835404028352916020019161103f565b820191906000526020600020905b81548152906001019060200180831161102257829003601f168201915b505050505090806002018054600181600116156101000203166002900480601f0160208091040260200160405190810160405280929190818152602001828054600181600116156101000203166002900480156110dd5780601f106110b2576101008083540402835291602001916110dd565b820191906000526020600020905b8154815290600101906020018083116110c057829003601f168201915b5050505050905083565b600060016000848152602001908152602001600020600083815260200190815260200160002060000160009054906101000a900473ffffffffffffffffffffffffffffffffffffffff16905092915050565b60035481565b600080600190506000600190505b60008086815260200190815260200160002060030154811161132f5760606001600087815260200190815260200160002060008381526020019081526020016000206001018054600181600116156101000203166002900480601f0160208091040260200160405190810160405280929190818152602001828054600181600116156101000203166002900480156112265780601f106111fb57610100808354040283529160200191611226565b820191906000526020600020905b81548152906001019060200180831161120957829003601f168201915b50505050509050846040516020018082805190602001908083835b602083106112645780518252602082019150602081019050602083039250611241565b6001836020036101000a03801982511681845116808217855250505050505090500191505060405160208183030381529060405280519060200120816040516020018082805190602001908083835b602083106112d657805182526020820191506020810190506020830392506112b3565b6001836020036101000a03801982511681845116808217855250505050505090500191505060405160208183030381529060405280519060200120141561132157600092505061132f565b50808060010191505061114d565b508091505092915050565b600060606001600085815260200190815260200160002060008481526020019081526020016000206002018054600181600116156101000203166002900480601f0160208091040260200160405190810160405280929190818152602001828054600181600116156101000203166002900480156113f95780601f106113ce576101008083540402835291602001916113f9565b820191906000526020600020905b8154815290600101906020018083116113dc57829003601f168201915b5050505050905060405160200180807f5100000000000000000000000000000000000000000000000000000000000000815250600101905060405160208183030381529060405280519060200120816040516020018082805190602001908083835b6020831061147e578051825260208201915060208101905060208303925061145b565b6001836020036101000a0380198251168184511680821785525050505050509050019150506040516020818303038152906040528051906020012014156114c95760019150506114cf565b60009150505b92915050565b6002602052816000526040600020602052806000526040600020600091509150508060000160009054906101000a900473ffffffffffffffffffffffffffffffffffffffff1690806001018054600181600116156101000203166002900480601f0160208091040260200160405190810160405280929190818152602001828054600181600116156101000203166002900480156115b45780601f10611589576101008083540402835291602001916115b4565b820191906000526020600020905b81548152906001019060200180831161159757829003601f168201915b505050505090806002018054600181600116156101000203166002900480601f0160208091040260200160405190810160405280929190818152602001828054600181600116156101000203166002900480156116525780601f1061162757610100808354040283529160200191611652565b820191906000526020600020905b81548152906001019060200180831161163557829003601f168201915b505050505090806003018054600181600116156101000203166002900480601f0160208091040260200160405190810160405280929190818152602001828054600181600116156101000203166002900480156116f05780601f106116c5576101008083540402835291602001916116f0565b820191906000526020600020905b8154815290600101906020018083116116d357829003601f168201915b5050505050905084565b60606001600084815260200190815260200160002060008381526020019081526020016000206001018054600181600116156101000203166002900480601f0160208091040260200160405190810160405280929190818152602001828054600181600116156101000203166002900480156117b75780601f1061178c576101008083540402835291602001916117b7565b820191906000526020600020905b81548152906001019060200180831161179a57829003601f168201915b5050505050905092915050565b6000808481526020019081526020016000206004016000815480929190600101919050555060405180608001604052803373ffffffffffffffffffffffffffffffffffffffff1681526020018381526020018281526020016040518060400160405280600181526020017f510000000000000000000000000000000000000000000000000000000000000081525081525060026000858152602001908152602001600020600080600087815260200190815260200160002060040154815260200190815260200160002060008201518160000160006101000a81548173ffffffffffffffffffffffffffffffffffffffff021916908373ffffffffffffffffffffffffffffffffffffffff16021790555060208201518160010190805190602001906118f1929190611b2f565b50604082015181600201908051906020019061190e929190611b2f565b50606082015181600301908051906020019061192b929190611b2f565b50905050505050565b600080600190506000600190505b600080868152602001908152602001600020600401548111611b245760606002600087815260200190815260200160002060008381526020019081526020016000206001018054600181600116156101000203166002900480601f016020809104026020016040519081016040528092919081815260200182805460018160011615610100020316600290048015611a1b5780601f106119f057610100808354040283529160200191611a1b565b820191906000526020600020905b8154815290600101906020018083116119fe57829003601f168201915b50505050509050846040516020018082805190602001908083835b60208310611a595780518252602082019150602081019050602083039250611a36565b6001836020036101000a03801982511681845116808217855250505050505090500191505060405160208183030381529060405280519060200120816040516020018082805190602001908083835b60208310611acb5780518252602082019150602081019050602083039250611aa8565b6001836020036101000a038019825116818451168082178552505050505050905001915050604051602081830303815290604052805190602001201415611b16576000925050611b24565b508080600101915050611942565b508091505092915050565b828054600181600116156101000203166002900490600052602060002090601f016020900481019282601f10611b7057805160ff1916838001178555611b9e565b82800160010185558215611b9e579182015b82811115611b9d578251825591602001919060010190611b82565b5b509050611bab9190611baf565b5090565b611bd191905b80821115611bcd576000816000905550600101611bb5565b5090565b9056fea265627a7a723158209579769eb13f1bec23999acbd77237575fcbbbeba5995bb175bed3060be96ea064736f6c63430005100032",
  "source": "// SPDX-License-Identifier: MIT\r\npragma solidity >=0.4.20;\r\n\r\ncontract Elections{\r\n\r\n    struct Election{\r\n        uint id;\r\n        string name;\r\n        address orgad;\r\n        uint no_voters;\r\n        uint no_cands;\r\n        string status;\r\n    }\r\n\r\n    struct Voter{\r\n        address ad;\r\n        string vid;\r\n        string app_status;\r\n    }\r\n\r\n    struct Candidate{\r\n        address ad;\r\n        string cid;\r\n        string cname;\r\n        string app_status;\r\n    }\r\n\r\n    constructor () public {\r\n        addElection(\"Candidate 1\");\r\n    }\r\n\r\n    mapping(uint => Election) public num_elections;\r\n\r\n    mapping(uint => mapping(uint => Voter)) public resp_voters;\r\n\r\n    mapping(uint => mapping(uint =>Candidate)) public resp_cands;\r\n\r\n    uint public electionsCount;\r\n\r\n    function addElection (string memory _name) public {\r\n        electionsCount ++;\r\n        num_elections[electionsCount] = Election(electionsCount,_name,msg.sender,0,0,\"VNS\");\r\n    }\r\n\r\n    function checkVoter (uint enid, string memory vid) public view returns(uint){\r\n        uint ret=1;\r\n        for(uint i=1;i<=num_elections[enid].no_voters;i++)\r\n        {\r\n            string memory pr=resp_voters[enid][i].vid;\r\n            if(keccak256(abi.encodePacked(pr)) == keccak256(abi.encodePacked((vid)))){\r\n                ret=0;\r\n                break;\r\n            }\r\n        }\r\n        return ret;\r\n    }\r\n\r\n    function checkCandidate (uint enid, string memory cid) public view returns(uint){\r\n        uint ret=1;\r\n        for(uint i=1;i<=num_elections[enid].no_cands;i++)\r\n        {\r\n            string memory pr=resp_cands[enid][i].cid;\r\n            if(keccak256(abi.encodePacked(pr)) == keccak256(abi.encodePacked((cid)))){\r\n                ret=0;\r\n                break;\r\n            }\r\n        }\r\n        return ret;\r\n    }\r\n\r\n    function addVoter (uint enid, string memory vid) public {\r\n        num_elections[enid].no_voters++;\r\n        resp_voters[enid][num_elections[enid].no_voters]=Voter(msg.sender,vid,\"Q\");\r\n    }\r\n\r\n    function addCandidate (uint enid, string memory cid, string memory cname) public {\r\n        num_elections[enid].no_cands++;\r\n        resp_cands[enid][num_elections[enid].no_cands]=Candidate(msg.sender,cid,cname,\"Q\");\r\n    }\r\n\r\n    function checkApprovedVoter(uint enid, uint vind) public view returns(uint){\r\n        string memory st=resp_voters[enid][vind].app_status;\r\n        if(keccak256(abi.encodePacked(st)) == keccak256(abi.encodePacked(\"Q\")))\r\n            return 1;\r\n        else\r\n            return 0;\r\n    }\r\n\r\n    function getVotersAddress(uint enid, uint vind) public view returns(address){\r\n        return resp_voters[enid][vind].ad;\r\n    }\r\n\r\n    function getVotersId(uint enid, uint vind) public view returns(string memory){\r\n        return resp_voters[enid][vind].vid;\r\n    }\r\n}",
  "sourcePath": "D:\\Krish\\Leaky Cauldron\\Programming\\Blockchain\\D-elections\\contracts\\Elections.sol",
  "compiler": {
    "name": "solc",
    "version": "0.5.16+commit.9c3226ce.Emscripten.clang"
  },
  "schemaVersion": "3.4.9",
  "updatedAt": "2022-10-19T14:38:42.789Z",
  "networkType": "ethereum",
  "devdoc": {
    "methods": {}
  },
  "userdoc": {
    "methods": {}
  }
}